:020000040000fa
:10200000f0ff0320ad2b0000bb320000bd3200000a
:10201000c1320000c3320000c532000000000000e1
:10202000000000000000000000000000fb31000084
:10203000bf32000000000000fb310000fb31000057
:10204000fb310000fb310000fb310000fb310000e0
:10205000fb310000fb310000fb310000fb310000d0
:10206000fb310000fb310000fb310000f92f0000c4
:10207000fb310000fb310000fb310000fb310000b0
:10208000fb310000fb310000fb310000fb310000a0
:10209000fb310000fb310000fb310000fb31000090
:1020a000fb310000fb310000fb310000fb31000080
:1020b000fb310000fb310000fb310000fb31000070
:1020c000fb310000fb310000fb310000fb31000060
:1020d000fb310000fb310000fb310000fb31000050
:1020e000fb310000592f000000000000000000003c
:1020f00000000000fb310000fb310000fb3100005c
:10210000fb310000fb310000fb310000fb3100001f
:10211000fb310000fb310000fb310000fb3100000f
:10212000fb310000fb310000fb310000fb310000ff
:10213000fb310000fb310000fb310000fb310000ef
:10214000fb310000fb3100008122000081220000f1
:102150008122000081220000000000000000000039
:10216000000000000000000000000000000000006f
:102170000000000000000000fb310000fb31000007
:10218000fb310000fb310000fb310000fb3100009f
:1021900000000000fb310000fb310000fb310000bb
:1021a000fb310000fb310000fb310000fb3100007f
:1021b000fb310000fb310000fb310000fb3100006f
:1021c000fb310000fb310000fb310000fb3100005f
:1021d000fb310000fb310000fb310000fb3100004f
:1021e000fb310000fb310000fb310000fb3100003f
:1021f000fb310000fb310000fb310000fb3100002f
:10220000fb3100000000000000000000fb31000076
:10221000fb310000fb310000fb310000fb3100000e
:10222000fb310000fb310000fb310000fb310000fe
:10223000fb310000fb310000fb310000fb310000ee
:10224000fb310000fb310000fb310000fb310000de
:10225000fb310000fb310000fb310000fb310000ce
:020000040000fa
:10226000f8b500bff8bc08bc9e467047c12e000000
:10227000f8b500bff8bc08bc9e4670479d2e000014
:020000040000fa
:10228000704b9b7d002b00f0db802de9f04182b08c
:102290006c4a137edbb2927d12f0800f11d1694a35
:1022a000137edbb2927d12f0010f00f0b68013f0c6
:1022b000010f00f0b280644c624d644e2069217db4
:1022c00034e013f0800fead05e4b5b8b13f0070312
:1022d000e5d05d4ad3875b4b80221a7607225a836a
:1022e0001b7e13f0040f05d0564b9a6a1a7e12f02b
:1022f000040ffad1544b1b6a002bd0d0524a516aba
:1023000002209847cbe7f25c8df806200133984213
:1023100098bf0023e3606b6803f00703012b14bf31
:102320009df80630bdf80630ab62b9b92b7e13f0cc
:10233000010f72d0a268e3689a426bd06a6802f01b
:102340000702012adfd116f813208df8062006ebcc
:10235000430252788df807200133d8e700f01cffc4
:102360002368002baad0227f32b1a2699042a5d364
:10237000616803209847a1e7a26990429ed16168f5
:10238000032098479ae7226aeab1616a404690477b
:10239000a36a0133226b934228bf002313e0a26a91
:1023a000bd54a36294f83430f3b9337e13f0040fb4
:1023b00043d0b56aa36a0133226b934228bf00233e
:1023c000e26a9a42dfd0e26a9a42eed0726802f084
:1023d0000702012ae3d1a26a07f8125007eb420272
:1023e000c5f307255570dce700f0a0fe236a002b3b
:1023f000dbd094f83c2032b1a26b9042d5d3616a15
:1024000000209847d1e7a26b9042ced1616a0020ac
:102410009847cae70b4b01221a750a4a137edbb2b2
:10242000927d12f0040f08d013f0040f05d0054e72
:10243000054c4ff00108064fb7e702b0bde8f08148
:10244000704700bf00040043644100209440002016
:042450001440002014
:020000040000fa
:1024540070b582b0514bdb78dbb2a02b0cd0a12b32
:102464002ed0a22b74d0522000f0ecfd00204b4b58
:1024740000221a7102b070bd494b1a6822f4ff524f
:1024840022f01f025b6823f4ff7323f0010313445b
:102494009a4202d2b3f5801f09d90024414b1c6033
:1024a400414b1c60512000f0cdfd2046dfe73d4943
:1024b4000a603d4a1360502000f0c4fd0120d6e7b5
:1024c400374b1d6825f4ff5525f01f05374b1d605c
:1024d400344b1b689d4236d3334b1b689d4232d22a
:1024e4002f4b334a03f5005053f8041f42f8041fde
:1024f4008342f9d1294b00221a71284600f084fe48
:1025040000f034fe0028fbd1284600f0bdfd00bfda
:1025140000f02cfe0028fbd105f500562c46254b77
:102524005d1b2146281900f0d7fc00bf00f01efef9
:102534000028fbd104f50074b442f2d1502000f01d
:1025440081fd032096e7512000f07cfd00208ee7fa
:10255400134b1e68134b1d68134b1c68641b00232c
:1025640001930121212000f06ffe01ab4ff0ff32f7
:102574002146284600f06afc0221212000f064fe76
:10258400019b9e4204d0542000f05cfd00206ee7c5
:10259400532000f057fd042069e700bfd441002018
:1025a40010000020e4410020e8410020e041002028
:0825b40010200020142000207b
:020000040000fa
:1025bc0008b5494b1b78042b12d8dfe803f0031243
:1025cc00497965000021454800f05afe012000f0d1
:1025dc0051fe0121084600f0affd3f4b01221a705d
:1025ec0008bd3d4b5b782bb13b4b00225a7004224b
:1025fc001a70f5e7384b9b7813b3374b9b79fbb1cb
:10260c00354b5b79abb1344b1b79002be8d0fff722
:10261c001bff334b1870304b00229a7010b90422f8
:10262c001a70dde704282c4b0cbf022201221a7011
:10263c00d6e7512000f002fd274b04221a70cfe799
:10264c00274b1b78042bcbd1234b02221a70c7e7e4
:10265c00244b01221a70244b00221a70234b1b6a44
:10266c0013f4004f06d01c4b9b784bb11a4b012234
:10267c001a70b5e700f0ccfd174b03221a70afe7c8
:10268c00154b02221a70abe7134b00229a709a7109
:10269c001a71164b1b6a13f4004f02d10e4b032216
:1026ac001a70104b00221a700f4b01221a7097e708
:1026bc004ff000530e4a1a605a609a60da60bff30a
:1026cc004f8f0c49ca6802f4e0620b4b1343cb608a
:1026dc00bff34f8f00bffde7d44100200927000056
:1026ec0004420020014200200342002000800041ef
:0c26fc004d43485000ed00e00400fa05da
:020000040000fa
:1027080000b583b000238df80730022824d00121ba
:102718000df1070000f0c8fa3a4a1368184410602f
:1027280000f088fdf8b1384b00221a70374a136858
:10273800591c11609df80700354a9854354b9b7811
:10274800002b2ed113784d2b27d0324a00239371ba
:1027580093702e4a13601be000f064fdd0b12d4b3e
:1027680001225a7016e0284b1b78002bded0274b2d
:102778001a68294b1b689a4206d2501c23490860e4
:102788009df8070022495054204a126893422dd0e0
:1027980000f094fc03b05df804fb1e4b01229a7014
:1027a800f6e7042910d00929f2d10121164b197036
:1027b800174a5068184b1860164b5971127ada701c
:1027c800124b00221a60e3e7114b1a68134b9a4226
:1027d80008d000230f4a53710c4a13600d4b012295
:1027e8009a71d5e70b4b01225a71f7e70023074a84
:1027f8001360054a1370084a1360064b01221a71c8
:10280800c6e700bfdc41002002420020ec41002066
:1028180010000020d4410020f04100204d434850d2
:020000040000fa
:10282800a44100201c00000000000000fe41002020
:102838000200000000000000cc4100200800000059
:1028480000000000c04100200c0000000000000053
:102858001440002000010000000000006441002036
:1028680040000000000000000042002001000000bd
:1028780000000000db410020010000000000000013
:10288800fc4100200200000000000000d4410020ac
:102898000700000000000000dc41002004000000e8
:1028a80000000000014200200300000000000000ba
:1028b800e041002004000000000000001420002077
:1028c800002000000000000010000020042000008c
:1028d80000000000e44100200c000000000000009f
:1028e800044200200100000000000000f041002028
:1028f8000800000000000000144100205000000003
:1029080000000000f8410020040000000000000062
:10291800000000000000000066666666666666667f
:020000040000fa
:102928002e4b00221a7403f500632d4a9a621a4648
:10293800536813f0100ffbd12a4b4222c3f88420ae
:102948001a4600bfd2f8843013f0400ffad0264b55
:1029580000229a6377225a631a46d36b13f0040f46
:10296800fbd1214b022283f830201a46d36b13f097
:10297800020ffbd11c4a136c03f00303032bfad19b
:102988001a4b01225a711a46d37813f0010ffbd063
:10299800144b174a1a621a46536813f0040ffbd1f6
:1029a800104b144a5a621a46536813f0080ffbd1a9
:1029b8000c4b4122c3f80c211a4600bfd2f80c3147
:1029c80013f0400ffad0094b6ff07f421a6140f2c2
:1029d800ff725a6102221a62704700bf0014004059
:1029e80006013000001c00400010004000080040b4
:0829f8000701010007010200c4
:020000040000fa
:102a00002de9f84300295fd00f46304b1e690024a2
:102a10002f4d1a4600f1010edff8b8c006e00cf8a1
:102a200001909360631c01349f4243d96b6803f0ab
:102a30000703012b1ad09168d2f80c804b1cb342cb
:102a400028bf0023984536d010f80490d5f80480ac
:102a500008f00708b8f1010fe1d10cf811900ceb68
:102a600041014ff0000881f80180dae79168d2f85f
:102a70000c804b1cb34228bf002398451bd01ef886
:102a8000149010f8148048ea0928d5f8049009f049
:102a90000709b9f1010f04d00cf801809360631ca1
:102aa000c1e70cf811800ceb41014fea182881f8be
:102ab0000180f3e71c4600f02dfb10b1044b01220e
:102ac0009a752046bde8f8830c46f4e7644100207f
:082ad0000004004394400020c3
:020000040000fa
:102ad80008b52e4b1b7813b1012b04d008bd2b4b26
:102ae80001221a70fae700f0bbfb294b1880294b2a
:102af8001b7853b9284b1b783bb1284b4ff48042c5
:102b08005a614ff480325a61e8e7254b1b78f3b1dc
:102b1800204b1b78dbb1204b1b78c3b9204b00221c
:102b28001a701b4b1b8813f0100f14bf4ff4007062
:102b38004ff4805000f022fb164b00221a70174bfe
:102b48004ff480429a614ff48032da61c6e7144b41
:102b58001b78002bc2d00f4b1b78002bbed1104b1b
:102b680000221a700a4b1b8813f0100f14bf4ff481
:102b780000704ff4805000f001fb084b4ff4803296
:102b88009a614ff48042da61a8e700bf0042002052
:102b9800fc41002001420020034200200080004147
:042ba800db410020ed
:020000040000fa
:102bac0008b5194b9847194b9847eff3108172b63b
:102bbc00174ad2f8883043f47003c2f88830bff358
:102bcc004f8fbff36f8f01b962b6124a936823f02f
:102bdc00010393601346da6812f0010ffbd10d4b21
:102bec0024225a6001229a6000f0e6f90a4b23f085
:102bfc007f03074a9360094b9847094b9847094b49
:102c0c00984700f024fbfee7c7320000c7320000f3
:102c1c0000ed00e00060004100200000a12d00004c
:082c2c00c7320000c7320000ae
:020000040000fa
:102c34001a4b1b4a1a604ff622029a81194a5a60ab
:102c44001a46d369002bfcd1144a136843f00203db
:102c54001360d369002bfcd1134b00221a629a62d1
:102c6400da6283f8342083f83c209a63da871a60a6
:102c74009a60da601a751a779a61084b5b6803f0f8
:102c84000703012b084b14bf802240221a631a61e8
:102c9400024b80229a7504229a75704700040043ff
:0c2ca40084011040000203006441002085
:020000040000fa
:102cb000f0b51b4ad36a956a61b30e46ab422cd07d
:102cc000d2f830c00122174fa0f1020e164c013885
:102cd0000be0e15c815401339c4598bf0023b24274
:102ce00013d2511cab4211d00a46796801f007019a
:102cf0000129eed114f813100ef8121004eb430161
:102d0000497800f812100133e6e71d46044bdd62f6
:102d10001046f0bd1d460a46f8e70022f6e700bf60
:0c2d200064410020000400431440002027
:020000040000fa
:102d2c001a4ad36823f4e0631b041b0c43f0bf6303
:102d3c0043f40033d360bff35f8f62b6144be021d2
:102d4c0083f80b134ff40060186083f829134ff4c9
:102d5c000070586083f842130420986083f8431382
:102d6c000820986083f844131020986083f845136a
:102d7c0020219960536a43f48023536253690343bf
:102d8c005361536a43f400335362704700ed00e023
:042d9c0000e100e072
:020000040000fa
:102da0000e4a38b5002313600d4a0e4c13600e4acc
:102db0000e4d13600e4a13600e4a13600e4a5362a2
:102dc00013610123936000f07ffa00f07dfaac42ba
:102dd00000d338bd54f8043b9847f8e7f841002089
:102de000204100206c2200001c41002070220000c5
:0c2df00014410020184100202441002064
:020000040000fa
:102dfc00134b01221a801a46136913f0010ffbd1f1
:102e0c000f4b48f280121a801a46136913f4004fc4
:102e1c00fbd10b4b4ff400721a621a46136913f074
:102e2c00200ffbd1064b00225a621a46136913f08d
:102e3c00400ffbd1024b4ff480725a81704700bf98
:042e4c00002400401e
:020000040000fa
:102e5000c9b110b40c46c3b10f4948608c60ca6058
:102e60004a78d2b24a7004220a704a7812f0010fee
:102e7000fbd0094a527812f0040f08d1064ad268f2
:102e80001a60012004e000207047002000e00020cc
:0c2e90005df8044b704700bf00200041bb
:020000040000fa
:102e9c0010b5054c227832b9044b13b10448aff38a
:102eac0000800123237010bda4410020000000000d
:102ebc000000000008b5034b1bb103490348aff3f6
:102ecc00008008bd00000000a841002000000000a8
:020000040000fa
:102edc0010b40d4b00221a80031f00f5fe74081a63
:102eec000430c21853f8041f1160a342f9d1074be8
:102efc001b8803f030031bb9044b4af203529a802f
:102f0c0001205df8044b7047fe4100200040004159
:020000040000fa
:102f1c000d4b4ff4a0321a604ff4e0321a610022cc
:102f2c0083f84e20062183f84f1083f8502083f845
:102f3c00372083f83820012283f8d02083f8d12061
:0c2f4c00222283f8b8207047008000416a
:020000040000fa
:102f580008b50b4b1b6813b1094a506898474ff0e6
:102f6800804345f6ff721a614ff6ff725a61054aaf
:102f78009a6147f6fb72da6140f6ff721a6208bd81
:082f8800cc410020bf7e0100d6
:020000040000fa
:102f900008b500f033f9fff7c1fffff7c5fc00f0fb
:102fa000ddf800f072f800f07ff800f07bf9fff731
:102fb00041fefff723ff00f033f800f091f8fff730
:042fc000b5fe08bd95
:020000040000fa
:102fc40070b50a480a4d4ff6ff76016811b9436897
:102fd40003b970bd83684268334000f10c0455f8ae
:102fe40023302046984704eb8000eee728280000b1
:042ff400d4310000d4
:020000040000fa
:102ff80008b5074b988980b2064a50604cf2ff31f9
:1030080099819b8913680bb19168984708bd00bfe7
:0830180000240040c04100202b
:020000040000fa
:1030200010b50024064b1c704ff4007000f0aaf895
:103030002146044800f01ef900f060f810bd00bf02
:0830400000420020c131000034
:020000040000fa
:1030480000b583b08df8070001210df10700fff7e7
:10305800d3fc00bf00f027f90028fbd103b05df8ce
:0430680004fb00bfa6
:020000040000fa
:10306c0010b50023934206d113f0030018bf0120c2
:0e307c0000eb930010bdc45ccc540133f2e7ae
:020000040000fa
:02308a0070478d
:020000040000fa
:10308c00044b00221a80044b58614af201529a8078
:0c309c0001207047fe4100200040004170
:020000040000fa
:1030a800044b00221a609a60034a5a6004221a608c
:0c30b800704700bf10e000e0bfd4010032
:020000040000fa
:1030c400054b1a6822f001021a6000229a601a68fd
:0c30d40042f001021a60704710e000e0ba
:020000040000fa
:1030e00008b5054b00221a705a709a705a711a71fd
:0c30f0009a7100f05bf808bdd44100208c
:020000040000fa
:1030fc00044a138843f002031380136913f0020f80
:08310c00fbd1704700240040d4
:020000040000fa
:10311400044a9368d06883423ebf024a12699b18ee
:08312400181a704764410020f5
:020000040000fa
:10312c00044bd86a9b6a984282bf024a126b9b1866
:08313c00181a704764410020dd
:020000040000fa
:10314400044b93f8342083f8340083f83c10104681
:08315400704700bf6441002038
:020000040000fa
:10315c00034b4ff480429a614ff480329a6170476e
:04316c00008000419e
:020000040000fa
:10317000034b588a80f0010000f00100704700bf47
:0431800000400041ca
:020000040000fa
:10318400034b18621a46136913f0200ffbd17047e2
:0431940000240040d3
:020000040000fa
:1031980010b5034b1c69fff7b9ff013c201a10bd9d
:0431a800644100205e
:020000040000fa
:1031ac00034b00229a601a6842f001021a607047c1
:0431bc0010e000e03f
:020000040000fa
:1031c00010f4807f02d0024b01221a70704700bfba
:0431d000db410020bf
:020000040000fa
:1031d400e93100006d300000b7320000b732000062
:0431e400b7320000fe
:020000040000fa
:1031e8000a440023914201d10020704701f8013bb5
:0231f800f8e7f6
:020000040000fa
:0231fa00fee7ee
:020000040000fa
:1031fc00024b40f204521a80704700bf004000415d
:020000040000fa
:10320c00024b58614af212529a80704700400041ba
:020000040000fa
:10321c00024b4af217529a80704700bf004000419f
:020000040000fa
:10322c00024bd88f0022da87704700bf6441002020
:020000040000fa
:10323c00024b1868c0f30040704700bf10e000e07c
:020000040000fa
:0e324c0080b240ea01414ff0804319607047a4
:020000040000fa
:0e325a0008b50020fff797fe00f019f8fce71a
:020000040000fa
:0c326800014b588a704700bf0040004135
:020000040000fa
:0c327400014b186099607047c0410020b9
:020000040000fa
:0c32800008b1014a9063704764410020cf
:020000040000fa
:0c328c00014b1862596270476441002039
:020000040000fa
:0c32980008b5fff71dfcfff78df908bd1d
:020000040000fa
:0a32a4004ff0804301225a72704778
:020000040000fa
:0832ae0008b5fff730ff08bd71
:020000040000fa
:0432b600002070473d
:020000040000fa
:0232ba00fee72d
:020000040000fa
:0232bc00fee72b
:020000040000fa
:0232be00fee729
:020000040000fa
:0232c000fee727
:020000040000fa
:0232c200fee725
:020000040000fa
:0232c400fee723
:020000040000fa
:0232c60070474f
:020000040000fa
:0232c80070474d
:00000001FF
