:020000040000fa
:10200000f0ff0320252b0000e3320000e532000042
:10201000e9320000eb320000ed3200000000000069
:10202000000000000000000000000000133200006b
:10203000e7320000000000001332000013320000fd
:10204000133200001332000013320000133200007c
:10205000133200001332000013320000133200006c
:102060001332000013320000133200002130000050
:10207000133200001332000013320000133200004c
:10208000133200001332000013320000133200003c
:10209000133200001332000013320000133200002c
:1020a000133200001332000013320000133200001c
:1020b000133200001332000013320000133200000c
:1020c00013320000133200001332000013320000fc
:1020d00013320000133200001332000013320000ec
:1020e00013320000492f0000000000000000000033
:1020f0000000000013320000133200001332000011
:1021000013320000133200001332000013320000bb
:1021100013320000133200001332000013320000ab
:10212000133200001332000013320000133200009b
:10213000133200001332000013320000133200008b
:102140001332000013320000852d0000852d0000a1
:10215000852d0000852d000000000000000000001b
:10216000000000000000000000000000000000006f
:1021700000000000000000001332000013320000d5
:10218000133200001332000013320000133200003b
:102190000000000013320000133200001332000070
:1021a000133200001332000013320000133200001b
:1021b000133200001332000013320000133200000b
:1021c00013320000133200001332000013320000fb
:1021d00013320000133200001332000013320000eb
:1021e00013320000133200001332000013320000db
:1021f00013320000133200001332000013320000cb
:102200001332000000000000000000001332000044
:1022100013320000133200001332000013320000aa
:10222000133200001332000013320000133200009a
:10223000133200001332000013320000133200008a
:10224000133200001332000013320000133200007a
:10225000133200001332000013320000133200006a
:020000040000fa
:10226000f8b500bff8bc08bc9e467047ed2e0000d4
:10227000f8b500bff8bc08bc9e467047c92e0000e8
:020000040000fa
:1022800070b582b0514bdb78dbb2a02b0cd0a12b08
:102290002ed0a22b74d0522000f0ecfe00204b4b2d
:1022a00000221a7102b070bd494b1a6822f4ff5225
:1022b00022f01f025b6823f4ff7323f00103134431
:1022c0009a4202d2b3f5801f09d90024414b1c6009
:1022d000414b1c60512000f0cdfe2046dfe73d4918
:1022e0000a603d4a1360502000f0c4fe0120d6e78a
:1022f000374b1d6825f4ff5525f01f05374b1d6032
:10230000344b1b689d4236d3334b1b689d4232d2ff
:102310002f4b334a03f5005053f8041f42f8041fb3
:102320008342f9d1294b00221a71284600f082ff1e
:1023300000f02aff0028fbd1284600f0bdfe00bfb8
:1023400000f022ff0028fbd105f500562c46254b56
:102350005d1b2146281900f0d7fd00bf00f014ffd7
:102360000028fbd104f50074b442f2d1502000f0f3
:1023700081fe032096e7512000f07cfe00208ee7ce
:10238000134b1e68134b1d68134b1c68641b002302
:1023900001930121212000f06dff01ab4ff0ff32ce
:1023a0002146284600f044fd0221212000f062ff72
:1023b000019b9e4204d0542000f05cfe00206ee79a
:1023c000532000f057fe042069e700bfd4410020ed
:1023d00010000020e4410020e8410020e0410020fe
:0823e000102000201420002051
:020000040000fa
:1023e80008b5494b1b78042b12d8dfe803f0031219
:1023f800497965000021454800f058ff012000f0a8
:102408004fff0121084600f0affe3f4b01221a7032
:1024180008bd3d4b5b782bb13b4b00225a70042220
:102428001a70f5e7384b9b7813b3374b9b79fbb1a0
:10243800354b5b79abb1344b1b79002be8d0fff7f8
:102448001bff334b1870304b00229a7010b90422ce
:102458001a70dde704282c4b0cbf022201221a70e7
:10246800d6e7512000f002fe274b04221a70cfe76e
:10247800274b1b78042bcbd1234b02221a70c7e7ba
:10248800244b01221a70244b00221a70234b1b6a1a
:1024980013f4004f06d01c4b9b784bb11a4b01220a
:1024a8001a70b5e700f0cafe174b03221a70afe79f
:1024b800154b02221a70abe7134b00229a709a71df
:1024c8001a71164b1b6a13f4004f02d10e4b0322ec
:1024d8001a70104b00221a700f4b01221a7097e7de
:1024e8004ff000530e4a1a605a609a60da60bff3e0
:1024f8004f8f0c49ca6802f4e0620b4b1343cb6060
:10250800bff34f8f00bffde7d44100203525000001
:1025180004420020014200200342002000800041c4
:0c2528004d43485000ed00e00400fa05af
:020000040000fa
:1025340000b583b000238df80730022824d0012190
:102544000df1070000f030fb3a4a1368184410609c
:1025540000f086fef8b1384b00221a70374a13682f
:10256400591c11609df80700354a9854354b9b78e7
:10257400002b2ed113784d2b27d0324a0023937190
:1025840093702e4a13601be000f062fed0b12d4b15
:1025940001225a7016e0284b1b78002bded0274b03
:1025a4001a68294b1b689a4206d2501c23490860ba
:1025b4009df8070022495054204a126893422dd0b6
:1025c40000f094fd03b05df804fb1e4b01229a70e9
:1025d400f6e7042910d00929f2d10121164b19700c
:1025e400174a5068184b1860164b5971127ada70f2
:1025f400124b00221a60e3e7114b1a68134b9a42fc
:1026040008d000230f4a53710c4a13600d4b01226a
:102614009a71d5e70b4b01225a71f7e70023074a59
:102624001360054a1370084a1360064b01221a719d
:10263400c6e700bfdc41002002420020ec4100203c
:1026440010000020d4410020f04100204d434850a8
:020000040000fa
:10265400a44100201c00000000000000fe410020f6
:102664000200000000000000cc410020080000002f
:1026740000000000c04100200c0000000000000029
:10268400144000200001000000000000644100200c
:102694004000000000000000004200200100000093
:1026a40000000000db4100200100000000000000e9
:1026b400fc4100200200000000000000d441002082
:1026c4000700000000000000dc41002004000000be
:1026d4000000000001420020030000000000000090
:1026e400e04100200400000000000000142000204d
:1026f4000020000000000000100000200420000062
:1027040000000000e44100200c0000000000000074
:10271400044200200100000000000000f0410020fd
:1027240008000000000000001441002050000000d8
:1027340000000000f8410020040000000000000038
:102744000000000000000000666666666666666655
:020000040000fa
:102754002e4b00221a7403f500632d4a9a621a461e
:10276400536813f0100ffbd12a4b4222c3f8842084
:102774001a4600bfd2f8843013f0400ffad0264b2b
:1027840000229a6377225a631a46d36b13f0040f1c
:10279400fbd1214b022283f830201a46d36b13f06d
:1027a400020ffbd11c4a136c03f00303032bfad171
:1027b4001a4b01225a711a46d37813f0010ffbd039
:1027c400144b174a1a621a46536813f0040ffbd1cc
:1027d400104b144a5a621a46536813f0080ffbd17f
:1027e4000c4b4122c3f80c211a4600bfd2f80c311d
:1027f40013f0400ffad0094b6ff07f421a6140f298
:10280400ff725a6102221a62704700bf001400402e
:1028140006013000001c0040001000400008004089
:08282400070101000701020099
:020000040000fa
:10282c002de9f84300295ed00f4600242f4e304b83
:10283c0000f1010edff8bcc006e00cf801809a60d4
:10284c00621c0134974244d9726802f00702012ad3
:10285c0018d09968dd684a1cd3f81080424528bf0f
:10286c000022954236d010f80480756805f00705f3
:10287c00012de2d14d000cf81180691c00250cf8db
:10288c000150dce7d3f80880d96808f101021d6912
:10289c00aa4228bf002291421cd01ef8145010f8f6
:1028ac00141041ea0521756805f00705012d05d0c6
:1028bc00c9b20cf808109a60621cc2e74fea4805ce
:1028cc005ffa81f90cf818900135090a0cf805101b
:1028dc00f1e7144600f02efc10b1044b01229a755e
:1028ec002046bde8f8830c46f4e700bf0004004323
:0828fc0064410020944000201b
:020000040000fa
:1029040008b5294b1b7813b1012b04d008bd264b05
:1029140001221a70fae700f0b9fc244b1880244b0a
:102924001b783bb9234b1b7823b1234b4ff48042d4
:102934005a61ebe7214b1b78dbb11d4b1b78c3b10c
:102944001c4b1b78abb91d4b00221a70174b1b880c
:1029540013f0100f14bf4ff400704ff4806000f0b8
:102964001bfc134b00221a70134b4ff480429a61e4
:10297400cce7124b1b78002bc8d00d4b1b78002bd7
:10298400c4d10e4b00221a70084b1b8813f0100f91
:1029940014bf4ff400704ff4806000f0fdfb064b51
:1029a4004ff48042da61b1e700420020fc4100208c
:1029b400014200200342002000800041db4100204e
:020000040000fa
:1029c4002de9f041294e2a4c4ff00108294f13e01c
:1029d400226afab1616a236a40469847a36a0133be
:1029e400226b934228bf002314e0a26aedb2bd54c7
:1029f400a36294f83430fbb9337e13f0040f32d061
:102a0400b56aa36a0133226b934228bf0023e26aaa
:102a14009a42ddd0e26a9a42eed0726802f007026e
:102a2400012ae2d1a16a4a00e8b207f81100013292
:102a3400c5f30725bd54dbe700f08cfb236a002bac
:102a4400dad0616a94f83c3033b1a36b9842d3d3a3
:102a5400236a00209847cfe7a36b9842ccd1236a1e
:102a640000209847c8e7bde8f08100bf0004004398
:082a7400644100201440002021
:020000040000fa
:102a7c0070b582b0254d264c264e14e0f25c8df8d4
:102a8c000620013322699a4298bf0023e3606b68e9
:102a9c0003f00703012b14bf9df80630bdf8063078
:102aac00ab62237dbbb92b7e13f0010f2cd0a26837
:102abc00e3689a4225d06a6802f00702012addd148
:102acc005a0016f813108df806100132b25c8df80e
:102adc0007200133d6e700f065fb2368002be2d01a
:102aec006168237f33b1a3699842dcd32368032048
:102afc009847d8e7a3699842d5d123680320984713
:102b0c00d1e7024b01221a7502b070bd00040043dc
:082b1c006441002094400020f8
:020000040000fa
:102b240008b5194b9847194b9847eff3108172b6c3
:102b3400174ad2f8883043f47003c2f88830bff3e0
:102b44004f8fbff36f8f01b962b6124a936823f0b7
:102b5400010393601346da6812f0010ffbd10d4ba9
:102b640024225a6001229a6000f03efa0a4b23f0b4
:102b74007f03074a9360094b9847094b9847094bd1
:102b8400984700f07cfbfee7ef320000ef320000d4
:102b940000ed00e00060004100200000292d00004d
:082ba400ef320000ef320000e7
:020000040000fa
:102bac002de9f0411c4ad36a956a89b30e46ab42b3
:102bbc0008bf002227d00122dff864c0174ca0f117
:102bcc00020e0138144f0ce0e15c81540133396b77
:102bdc00994298bf0023b24214d2511cab4212d07e
:102bec000a46dcf8041001f007010129ecd1590068
:102bfc0014f813800ef812800131615c00f8121089
:102c0c000133e4e71d46044bdd621046bde8f0815c
:102c1c001d460a46f7e700bf64410020144000201f
:042c2c00000400435d
:020000040000fa
:102c30001c4ad36823f4e0631b041b0c43f0bf63fe
:102c400043f40033d360bff35f8f62b6164be021cd
:102c500083f80b134ff40060186083f829134ff4c6
:102c60000070586083f842130420986083f843137f
:102c70000820986083f844131020986083f8451367
:102c800020219960536a43f48023536253690343bc
:102c90005361536a43f400335362536a43f48033fd
:0c2ca0005362704700ed00e000e100e02e
:020000040000fa
:102cac001a4b1b4a1a604ff622029a81194a5a6033
:102cbc001a46d369002bfcd1144a136843f0020363
:102ccc001360d369002bfcd1134b00221a629a6259
:102cdc00da6283f8342083f83c209a63da871a602e
:102cec009a60da601a751a779a61084b5b6803f080
:102cfc000703012b084b14bf802240221a631a6170
:102d0c00024b80229a7504229a7570470004004386
:0c2d1c008401104000020300644100200c
:020000040000fa
:102d28000e4a38b5002313600d4a0e4c13600e4a44
:102d38000e4d13600e4a13600e4a13600e4a53621a
:102d480013610123936000f0cffa00f0cdfaac4292
:102d580000d338bd54f8043b9847f8e7f841002001
:102d6800204100206c2200001c410020702200003d
:0c2d7800144100201841002024410020dc
:020000040000fa
:102d840008b5144b9b7df3b1124a137edbb2927dde
:102d940012f0800f18d10f4a137edbb2927d12f02d
:102da400010f04d013f0010f01d0fff765fe094aab
:102db400137edbb2927d12f0040f04d013f0040fe3
:102dc40001d0fff7fdfd08bd13f0800fe3d000f044
:082dd40053f8e0e7000400439e
:020000040000fa
:102ddc00134b01221a801a46136913f0010ffbd111
:102dec000f4b48f280121a801a46136913f4004fe5
:102dfc00fbd10b4b4ff400721a621a46136913f095
:102e0c00200ffbd1064b00225a621a46136913f0ad
:102e1c00400ffbd1024b4ff480725a81704700bfb8
:042e2c00002400403e
:020000040000fa
:102e3000c9b110b40c46c3b10f4948608c60ca6078
:102e40004a78d2b24a7004220a704a7812f0010f0e
:102e5000fbd0094a527812f0040f08d1064ad26812
:102e60001a60012004e000207047002000e00020ec
:0c2e70005df8044b704700bf00200041db
:020000040000fa
:102e7c0008b5104b5b8b13f0070300d108bd0e4a4d
:102e8c00d3870c4b80221a7607225a831b7e13f0b1
:102e9c00040f05d0074b9a6a1a7e12f0040ffad170
:102eac00054b1b6a002be9d0034b596a1b6a0220a5
:0c2ebc009847e3e7000400436441002055
:020000040000fa
:102ec80010b5054c227832b9044b13b10448aff35e
:102ed80000800123237010bda441002000000000e1
:102ee8000000000008b5034b1bb103490348aff3ca
:102ef800008008bd00000000a8410020000000007c
:020000040000fa
:102f080010b40d4b00221a80031f00f5fe74081a36
:102f18000430c21853f8041f1160a342f9d1074bbb
:102f28001b8803f030031bb9044b4af203529a8002
:102f380001205df8044b7047fe410020004000412d
:020000040000fa
:102f480008b50c4b1b681bb10a4b58681b6898479f
:102f58004ff0804345f6ff721a614ff6ff725a61cf
:102f6800054a9a6147f6fb72da6140f6ff721a6207
:0c2f780008bd00bfcc410020bf7e01005e
:020000040000fa
:102f84000b4b4ff480421a604ff440421a61002206
:102f940083f84e20062183f84f1083f8372001224e
:102fa40083f8d02083f8d120222283f8b8207047f8
:042fb4000080004158
:020000040000fa
:102fb80008b500f033f9fff7e1fffff7c7fb00f0b2
:102fc80025f900f074f800f081f800f07bf9fff7bc
:102fd80069fefff7fffe00f035f800f093f8fff701
:042fe80023fe08bdff
:020000040000fa
:102fec0070b50a480a4d4ff6ff76016811b943686f
:102ffc0003b970bd83684268334000f10c0455f886
:10300c0023302046984704eb8000eee7542600005e
:04301c00ec31000093
:020000040000fa
:1030200008b5084b9a8992b207494a604cf2ff32c0
:103030009a819b890b6823b10b46486889681b6895
:0c304000984708bd00240040c04100205b
:020000040000fa
:10304c0010b50024064b1c704ff4007000f0a0f873
:10305c002146044800f01cf900f060f810bd00bfd8
:08306c0000420020d9310000f0
:020000040000fa
:1030740000b583b08df8070001210df10700fff7bb
:10308400d3fb00bf00f025f90028fbd103b05df8a5
:0430940004fb00bf7a
:020000040000fa
:1030980010b50023934206d113f0030018bf012096
:0e30a80000eb930010bdc45ccc540133f2e782
:020000040000fa
:0230b600704761
:020000040000fa
:1030b800044b00221a80044b58614af201529a804c
:0c30c80001207047fe4100200040004144
:020000040000fa
:1030d400044b00221a609a60034a5a6004221a6060
:0c30e400704700bf10e000e0bfd4010006
:020000040000fa
:1030f000054b1a6822f001021a6000229a601a68d1
:0c31000042f001021a60704710e000e08d
:020000040000fa
:10310c0008b5054b00221a705a709a705a711a71d0
:0c311c009a7100f051f808bdd441002069
:020000040000fa
:10312800044a138843f002031380136913f0020f53
:08313800fbd1704700240040a8
:020000040000fa
:10314000044a9368d06883423ebf024a12699b18c2
:08315000181a704764410020c9
:020000040000fa
:10315800044bd86a9b6a984282bf024a126b9b183a
:08316800181a704764410020b1
:020000040000fa
:10317000044b93f8342083f8340083f83c10104655
:08318000704700bf644100200c
:020000040000fa
:10318800034b588a80f0010000f00100704700bf2f
:0431980000400041b2
:020000040000fa
:10319c00034b18621a46136913f0200ffbd17047ca
:0431ac0000240040bb
:020000040000fa
:1031b00010b5034b1c69fff7c3ff013c201a10bd7b
:0431c0006441002046
:020000040000fa
:1031c400034b00229a601a6842f001021a607047a9
:0431d40010e000e027
:020000040000fa
:1031d80010f4807f02d0024b01221a70704700bfa2
:0431e800db410020a7
:020000040000fa
:1031ec000132000099300000df320000df320000b5
:0431fc00df320000be
:020000040000fa
:103200000a440023914201d10020704701f8013b9c
:02321000f8e7dd
:020000040000fa
:02321200fee7d5
:020000040000fa
:10321400024b4ff480429a61704700bf0080004126
:020000040000fa
:10322400024b40f204521a80704700bf0040004134
:020000040000fa
:10323400024b58614af212529a8070470040004192
:020000040000fa
:10324400024b4af217529a80704700bf0040004177
:020000040000fa
:10325400024bd88f0022da87704700bf64410020f8
:020000040000fa
:10326400024b1868c0f30040704700bf10e000e054
:020000040000fa
:0e32740080b240ea01414ff08043196070477c
:020000040000fa
:0e32820008b50020fff797fe00f019f8fce7f2
:020000040000fa
:0c329000014b588a704700bf004000410d
:020000040000fa
:0c329c00014b186099607047c041002091
:020000040000fa
:0c32a80008b1014a9063704764410020a7
:020000040000fa
:0c32b400014b1862596270476441002011
:020000040000fa
:0c32c00008b5fff71ffbfff78ff808bdf3
:020000040000fa
:0a32cc004ff0804301225a72704750
:020000040000fa
:0832d60008b5fff732ff08bd47
:020000040000fa
:0432de000020704715
:020000040000fa
:0232e200fee705
:020000040000fa
:0232e400fee703
:020000040000fa
:0232e600fee701
:020000040000fa
:0232e800fee7ff
:020000040000fa
:0232ea00fee7fd
:020000040000fa
:0232ec00fee7fb
:020000040000fa
:0232ee00704727
:020000040000fa
:0232f000704725
:00000001FF
