:020000040000fa
:08000000ffff032009000000ce
:020000040000fa
:100008000d4a0e48801a800808d00d4b03eb80007b
:1000180053f8041b42f8041b8342f9d1094b0a4ade
:10002800d21a920806d003eb8202002143f8041b7f
:100038009a42fbd100f00cb818000020a806002056
:1000480060000000a8060020dc4600200000000038
:080058005ff800f065060020ce
:020000040000fa
:1000600070b5254c257805b170bd00f0a3fa0028c5
:10007000fad000f0a7fac6b200f0d0fab8b96378a7
:10008000656803b3a368ab4204d91c496a1c6e546b
:1000900062601546ab4206d10022c4e9012201216b
:1000a000236162702170bde8704000f09fba134a6e
:1000b0006570012316706360114b5b5db342f2d033
:1000c00000236360efe76b1c0c4a6360042b5655fa
:1000d000f2d9092be7d10b4b1168994203d051207b
:1000e00000f056faece7d2e90132a3600123227353
:1000f00063706373e4e700bfa8060020cc260020ed
:10010000a40600204d4348502de9f84f634ddff819
:1001100090a1dff894b105e02b78002b3ed16b7bea
:10012000002b39d0fff79cff2b7d002bf4d0d5f8a6
:1001300018802f694046043f00f0daf901e0fff72c
:100140008fff00f0cdf90028f9d1404600f0b6f954
:1001500001e0fff785ff00f0c3f90028f9d1b7b13e
:10016000dff8489104464646a9eb08003044314682
:1001700000f086f901e0fff773ff00f0b1f9002805
:10018000f9d104f50074a74206f50076ecd80023f7
:100190002b756b7b002bc5d1bde8f88f2b7ba02b7b
:1001a0000dd0a12b22d0a62b51d0a22b67d0a32bf0
:1001b00042d0a42b59d0522000f0eaf913e0dae93a
:1001c000002323f4ff7302ea0b0223f0010313441c
:1001d0009a4202d2b3f5801f28d900235120c5e9e5
:1001e000073300f0d5f900232b7098e7daf80030d8
:1001f000ea6903ea0b039342ab6113d32a6a934281
:1002000010d2274b274a03f5005000bf53f8041fb4
:1002100042f8041f8342f9d1012350202b7500f0ce
:10022000b7f9e0e7512000f0b3f9dce75020c5e969
:10023000072300f0adf9d6e7502000f0a9f900bf80
:1002400000f0b0f90028fbd000f050f8cbe75020c8
:1002500000f09ef900f02ef80446c0f30f2000f0e5
:1002600097f9e0b200f094f9bde7502000f090f962
:1002700000f098f90028fbd000f042f9b3e7d5e987
:100280000701091adaf8004000f018f884420cbfa0
:100290005320542000f07cf9a5e700bfa8060020f9
:1002a000cc260020c806002000e0ffffcc0600207e
:1002b000704700bf40f20730704700bf30b583b0d1
:1002c00004460d464ff0ff3301212120019300f039
:1002d00021f9294601ab019a204600f089f8022154
:1002e000212000f017f9019803b030bdbff34f8f04
:1002f0000549064bca6802f4e0621343cb60bff3c2
:100300004f8f00bffde700bf00ed00e00400fa05dd
:1003100038b50468631c07d0034600205d68fff70a
:10032000c7ff84f30888284738bd00bf024b4ff44d
:1003300080429a61704700bf00800041254a264be9
:100340002649002010741a4699625368db06fcd4d3
:1003500042232149c2f88430d1f884305806fbd5b5
:100360001f4b002277219a631a465963d36b5907b2
:10037000fcd402231a4982f83030cb6b9b07fcd4a3
:10038000174a136c03f00303032bfad1154a012318
:100390005371d378d807fcd50f4a134b13625368b7
:1003a0005907fcd4114b0c4953624b681a07fcd413
:1003b0004123094ac1f80c31d2f80c315b06fbd558
:1003c000084b6ff07f4040f2ff71022218615961c3
:1003d0001a62704700140040001c00400601300003
:1003e0000010004000080040070101000701020062
:1003f00009b900207047002bfbd010b40c4c606092
:10040000a160e26062780420d2b26270214620705e
:100410004a78d007fcd54a78520703d500205df80a
:10042000044b7047ca681a6001205df8044b70479e
:1004300000200041704700bf0c4bda684ff6ff0107
:100440000a4042f0bf6242f40032da60bff35f8fcd
:1004500062b65a6a42f480225a625a6942f0100225
:100460005a615a6a42f400325a62704700ed00e065
:10047000024b40f204521a80704700bf0040004116
:100480000c4a30b4091a0025031f0c1d00f5fe703c
:100490001580e21853f8041f11608342f9d1064a0f
:1004a000138803f0300313b94af2035393800120f9
:1004b00030bc7047d04600200040004110b4064bcd
:1004c000064c01464af20152002020800120596169
:1004d0009a805df8044b704700400041d0460020f0
:1004e000024b588ac04300f00100704700400041b1
:1004f000024b4af2125258619a8070470040004104
:10050000024b4af217529a80704700bf00400041e8
:10051000704700bf80b24ff0804340ea014119604c
:10052000704700bf30b40c4b4ff4804018604ff45c
:10053000404500210624012222201d6183f84e102f
:1005400083f84f4083f8371083f8d02083f8d12008
:1005500083f8b80030bc7047008000410a4b0b4a5a
:100560001a604ff440314ff622029a811a465960c0
:10057000d369002bfcd11368034943f002031360d5
:10058000cb69002bfcd170470004004304011040ec
:10059000034a137edb07fcd580b29062704700bf30
:1005a00000040043024b187ec0f34000704700bfb8
:1005b00000040043024b187ec0f38000704700bf68
:1005c00000040043014b986a704700bf00040043d9
:1005d000044b0548002204211a609a605860196093
:1005e000704700bf10e000e0ff1ab700054b1a6823
:1005f000002122f001021a6099601a6842f001029b
:100600001a60704710e000e0034b00229a601a68fd
:1006100042f001021a60704710e000e0024b1868d7
:10062000c0f30040704700bf10e000e008b5fff7de
:100630001ffffff777ff00f017f878b1fff77efe96
:10064000fff774fefff7f6fefff7c2fffff760ff4c
:10065000fff784ffbde80840fff7eebe4ff40050ff
:10066000fff756feeae700bf4ff4fa6300bf013b15
:10067000fcd14ff000520b481168814206d00a4b62
:10068000186a6fead03000f0010070475068884265
:10069000f5d191688142f2d1d0688842efd11360e0
:1006a000012070474d4348500080004108b50020ac
:1006b000fff7bcfffff78cfffff7a6ff094c0a4ec0
:1006c0004ff48045fff7aaff236808b16433236025
:1006d00062689a1ab2f57a7f24bff5616360fff70a
:1006e00013fdefe7d4460020008000414d43485001
:00000001FF
